:020000040800F2
:10600000707A0008616000085D6700080300000006
:1060100041EA000313F0030F024604D102680B6843
:106020009A4212D00246107820B917E012F8010FF8
:10603000013198B10B788342F8D0C01A704750F8FC
:10604000042F51F8043F9A42ECD1A2F10133D2431C
:10605000134013F0803FF2D00020EFE70B78ECE71D
:1060600010B5002103E00C4BCB580B5004310B480A
:106070000B4B0A189A42F6D30A4A02E0002342F870
:10608000043B094B9A42F9D34FF480731A68074BCB
:106090001A6000F01BFC10BD407B000800000020CF
:1060A000D4000020D400002048030020D8000020A5
:1060B00070B5314D314C2B68314E9BB22380228814
:1060C0003388134013F4806F05D04FF6FF332B60F5
:1060D0002C4B5B6898472388328802EA030313F449
:1060E000005F1CBF4DF6FF732B60238802EA030399
:1060F00013F4805F05D04EF6FF732B60002000F094
:1061000079F922883388134013F4006F0CD01E4BAA
:106110001B7813B100F052F902E0022000F06AF996
:10612000154B4FF2FF721A60144C154D23882988C5
:1061300001EA030313F4007F08D00F4B4FF6FF5220
:106140001A60124A13780133DBB21370238801EA14
:10615000030313F4807F06D0074B4FF6FF621A60EB
:10616000072000F047F922882B88134013F4004FD2
:1061700001D000F05BFC70BD445C0040DC000020FE
:106180004802002078000020D0000020D400002029
:106190007047C0467047C046062810B510D1144B52
:1061A0001A68137803F07F03012B09D153793BB9A7
:1061B0009378222B01D10F4A10E0212B0DD00AE059
:1061C0000B4B1B681B7803F07F03212B03D10328A3
:1061D00001D1094A02E0022009E0084A044B4FF0CD
:1061E00000011B6800209A6159829047002010BD71
:1061F00044020020716200084562000861620008E4
:1062000001B900B102207047034B00201B68DA7807
:10621000024B1A607047C04644020020E000002094
:1062200010B5074B1B681B7803F07F03212B04D1AB
:106230000B2802D1FFF7E8FF00E0022010BDC046A6
:106240004402002028B9044B4FF001011B68198259
:1062500000E002487047C04644020020E0000020F1
:1062600010B5024900F0EAFE10BDC046380000201B
:1062700010B5024900F0E2FE10BDC046400000200B
:1062800010B5044B04491B68DB7801EBC30100F037
:10629000D5FE10BD440200204800002010B5024980
:1062A00000F0CCFE10BDC0466800002010B50249C9
:1062B00000F0C4FE10BDC04670000020204A10B59A
:1062C000136800249C7213682046DC7200F09EFC68
:1062D00020464FF4007100F0A3FC2046102100F08E
:1062E000ADFC2046182100F039FD5821204600F071
:1062F00025FD204600F0EEFC124B204693F86C1072
:1063000000F066FD204600F0D7FC01204FF4C0618C
:1063100000F086FC01204FF4807100F00FFD012099
:10632000782100F047FD0120214600F09FFC01206C
:10633000202100F083FC204600F090FE10BDC046F6
:10634000440200203800002070B50C4D00242B685A
:106350009C7200F01FF80A4B4FF43F421C60094B3F
:106360001A80094B1A60094B2A68DB79537200F0D6
:1063700095FE074B05221A7070BDC04644020020EE
:10638000445C004048020020405C00408B7A0008DA
:10639000D5000020064901230B60064B0020086051
:1063A0001860054B4FF4E0521A800A607047C046EF
:1063B000405C0040445C004048020020054B1A68E5
:1063C00092B242F008021A601A6892B242F00402D5
:1063D0001A607047405C0040054A4FF6FB73116835
:1063E00001EA030313604FF43F4313607047C04654
:1063F000405C0040072818BF1F4B10B518BF18702D
:106400001D4B1A781C46052A33D8DFE802F0030634
:106410000A0E1621FFF7E0FF2BE0FFF7DDFF042354
:1064200028E002236370013324E06378013BDBB290
:1064300063706378FBB9042218E0104A13689BB2BA
:1064400043F01003136005232370DB18637012E020
:106450006378013BDBB26370637863B907494FF639
:10646000EF730A6802EA03030B600622024B1A70FC
:1064700001E00623237010BDE4000020405C0040D2
:106480002DE9F74300F10F031FFA83F9164B0021A2
:106490001A684FF6FF730093D2F818416E230F224B
:1064A0000646A047114DB7B216E00F4BDFF840800B
:1064B00018684FF4F852009235F9023CD0F8BC400D
:1064C00032463046B8F80010A04735F8023C013695
:1064D000A8F800307B1C9FB23AB20FFA89F302355C
:1064E0009A42E2DBBDE8FE83D800002026010020AE
:1064F000000100202A4B2DE9F0411C78294F0CB1F6
:10650000002635E0284B01201B682146D3F8803156
:106510009847264B26461A88531C9AB237F9023BF5
:10652000402B1FDD13B2302B1CDD1F4C1F4D236889
:106530002A80D3F840320220984723680120D3F8FC
:10654000803101469847B5F900204FF4E15393FBA1
:10655000F2F3174A1370124B01221A704FF0000326
:106560002B8005E0731CDEB20F2ED5D10F4B1A80A5
:106570000B4B1B7893B10D4A13880F339B1B138071
:106580000AE0B7F900302C2B03DC054B00221A700F
:1065900004E0731C0237DEB20E2EF2D9BDE8F081A2
:1065A000D600002026010020D80000200401002091
:1065B000240100202DE9F04F394C00EB410510E09B
:1065C000028843889B1882889B18C28808309B18D1
:1065D0001BB2B3F5804FA8BF4FF48043DB1124F802
:1065E000023C0234A842EBD3042391FBF3F32D4F7A
:1065F0001FFA83FB4FF0000A49E02B4B2B48D3F8DE
:106600000490D3F80880D3F80CC01C6937F902EC69
:106610004268DC60C3F80090C3F80480C3F808C087
:10662000C3F810E0224B026002FB03F2C168214B69
:10663000866801FB032381601F49056906FB013160
:1066400006231E4A0CFB03E305FB02124B444444A1
:1066500003EB840302EB034212140323026192FB57
:10666000F3F23C3A92B213B26D2B4660C56002DD84
:106670004FF06D0303E0002B04DA4FF0000327F81E
:10668000023C01E027F8022C0AF1010A02370FFA56
:106690008AF20FFA8BF39A42AFDBBDE8F08FC04667
:1066A000260100202801002008010020EC00002025
:1066B00069DFFFFF060CFFFFAAD0FFFF380CFFFFCA
:1066C0007FB5224D3C212B68214AD3F89C40052000
:1066D0001123A0472B6803AED3F89C40D3F8D032E7
:1066E00098473C21024603235020A0472B682221D3
:1066F000D3F89C40174A03230520A0472B6822218A
:10670000D3F89C40144A0C232820A0472B6802ACE5
:10671000D3F80433214601AA30469847019A3C2316
:10672000043292FBF3F101FB13230193074B6A46FA
:106730001B683046D3F8043321469847009A019BE2
:106740009A42F3D1022004B070BDC046D8000020A8
:10675000267B00082F7B0008357B00082DE9F341DC
:10676000DFF86481D8F80040002C77D0012000F0D9
:1067700005FB7822014620464D4E00F01DFA01200F
:1067800000F08CFA4B4FD8F800003C21FFF712FFC5
:1067900032684FF6FF73B7F900000093D2F8184142
:1067A0000F2213466F21A04733683320D3F80C31F2
:1067B000984733680420D3F810319847336878201D
:1067C000D3F81031984733680820D3F81031984730
:1067D00033683720D3F80C3198473368B7F9000095
:1067E000D3F810310F30344D9847B7F90000FFF758
:1067F00047FEFFF77FFE6B7853B13268F823B7F995
:1068000000000093D2F8184141210F220123A04734
:106810006B782A48D3F1010338BF00236B703B88A3
:106820000F339AB213B2772BC8BFA2F178033A8024
:10683000C8BF3B8033680222D3F8C842204B197886
:106840000023A0473368B7F90000D3F89C406F21BC
:1068500002231A4AA0470023C8F80030144D2B68C1
:10686000D3F80032984744B2012C01D001201CE03B
:106870002B68D3F80C3298472B682046D3F80432A3
:10688000984701F03DF82B681320D3F80C31984756
:1068900000F070F82B689020D3F8E422094B1968B7
:1068A00090472B68D3F8A8329847BDE8FC81C046D2
:1068B000D800002022010020D60000201D01002069
:1068C00024010020E80000205402002010B5214CD3
:1068D0002368D3F8D03298471F49FFF799FB002867
:1068E00002DAFFF7EDFE34E023680520D3F8C0326A
:1068F000984700F0B9FF194B4FF040021A80184B2F
:106900004FF000021A8023680320D3F838319847EB
:10691000144A3F231361D360936053601360124A9B
:1069200090201361D3609360536013602368D3F8A1
:10693000E83298470D4B0E49186023689020D3F831
:10694000E432984700F030F800F04AF800F052F8CE
:10695000042010BDD80000202F7B0008000100207B
:106960002201002008010020EC000020E8000020A7
:10697000B160000813B54FF4E06000F0CDFF1423C0
:1069800000248DF8043001A803238DF805308DF81C
:1069900006408DF8074000F0C9FF4FF40000214683
:1069A00001F054F81CBDC04607B54FF4E06000F09C
:1069B000B3FF14238DF8043003238DF80530002332
:1069C0008DF8063001A801338DF8073000F0AEFFD6
:1069D000062102480A4601F001F80EBD9AC30200E2
:1069E000002010B501F02CF84FF40000012101F057
:1069F0002DF810BD074A084B08491A60022310B54C
:106A00001372074B074A1960074B1A600B689847C7
:106A100010BDC0462402002044020020780000205F
:106A20001C020020AC0000204002002070B5A8E04D
:106A300047F6FF7313600388574E03F00F01317060
:106A4000002975D1554D564A2B6803F440531380E5
:106A50002B68544A03F0300313802A684BF68F7377
:106A600002EA030383F400532B602A6848F6BF73DD
:106A700002EA030383F020032B60038813F0100F56
:106A80000CD12B6848F60F7203EA02022A6000F06C
:106A9000D1FB2B6813F4084F24D00FE02B689CB275
:106AA00014F0800F07D02A6848F60F7302EA030338
:106AB0002B6000F0BFFB14F4006F08D02A6840F68A
:106AC0008F7302EA03032B6000F054FC0AE014F415
:106AD000004F07D02A6840F68F7302EA03032B6049
:106AE00000F000FB2D494BF68F720B6803EA02029F
:106AF0002B4B1B8813F4805F18BF82F4805213F471
:106B0000005F18BF82F400520A600B6848F6BF723B
:106B100003EA0202234B1B8813F0100F18BF82F008
:106B2000100213F0200F18BF82F020020A6028E044
:106B30001A4C54F821309DB215F4004F0ED054F881
:106B4000212040F68F7302EA030344F821303278A3
:106B5000154B03EB820353F8043C984715F0800F64
:106B60000FD0317848F60F7354F8212002EA03035E
:106B700044F8213032780D4B03EB820353F8043C88
:106B800098470B4A0B4813689BB2038003881BB2DB
:106B9000002BFFF64DAF70BD20020020005C0040CE
:106BA0004A0200204C0200201C00002000000020AF
:106BB000445C0040DC00002010B54900013201F1C6
:106BC000804101F5C041540808E010F8012C10F88C
:106BD000023C013C43EA022321F8043C0431023028
:106BE000002CF2D110BDC0464900013201F18041B4
:106BF00001F5C041520804E031F8043C013A20F8A4
:106C0000023C02300431002AF6D170474FF6F87387
:106C1000024A00EA030313607047C046505C00401C
:106C200010B5054C48F68F1354F8202002EA0303F0
:106C30000B4344F8203010BD005C004010B50A4CF6
:106C400048F6BF7254F8203011F0100F03EA020228
:106C500018BF82F0100211F0200F18BF82F020023E
:106C600044F8202010BDC046005C004010B50A4C1E
:106C70004BF68F7254F8203011F4805F03EA020261
:106C800018BF82F4805211F4005F18BF82F40052E2
:106C900044F8202010BDC046005C0040054948F67D
:106CA000BF7351F8202002EA030383F0300341F858
:106CB00020307047005C004005494BF68F7351F857
:106CC000202002EA030383F4405341F82030704748
:106CD000005C0040044948F68F6351F8202002EA26
:106CE000030341F820307047005C0040084951F828
:106CF000203013F4804F09D051F8202048F68F73CC
:106D000002EA030343F4804341F820307047C04651
:106D1000005C0040084951F8203013F0400F09D0C2
:106D200051F8202048F68F7302EA030343F0400332
:106D300041F820307047C046005C0040054B4908D0
:106D40001B68054A9BB203EBC003490042F81310CD
:106D50007047C046505C004000600040054B490849
:106D60001B68054A9BB203EBC003490042F81310AD
:106D70007047C046505C004008600040044B054A24
:106D80001B689BB203EBC00332F813007047C04688
:106D9000505C004000600040044B054A1B689BB2F9
:106DA00003EBC00332F813007047C046505C00404C
:106DB00008600040044B054A1B689BB203EBC0030C
:106DC00042F813107047C046505C00400460004019
:106DD0000D4B3E291B689BB203EBC0020B4809D93F
:106DE0004B0911F01F0F01D1013B9BB29B0243F4F1
:106DF000004305E04B0811F0010F18BF01339B025F
:106E000040F812307047C046505C00400C600040B3
:106E1000C3B2000A40EA03207047C04610B5074CD1
:106E200020B923684FF00101198206E0044B1B686A
:106E30001B689847236803F10A0010BD4402002034
:106E40004002002010B50A4B1A680A4BD1785B78D3
:106E50008B420AD3937843B9948834B9064B917224
:106E60001B685B689847204600E0022010BDC046C2
:106E700044020020A80000204002002010B5074C6A
:106E800020B923684FF00101198206E0044B1B680A
:106E90009B689847236803F10C0010BD4402002052
:106EA0004002002070B50F4B0F4D1B682A689B698C
:106EB0005079D17898472A68937A83B178B9137951
:106EC0006BB994785CB9094B1B68DB6898472A68F2
:106ED00020465379D3722A68D378137300E00220D6
:106EE00070BDC0461C020020440200204002002069
:106EF00010B5224B20B91B684FF0020119823BE00C
:106F00001F484FF0000202801A68137813F07F03C5
:106F10000ED1527A12F0200F03D0037843F002030F
:106F2000037012F0400F03781ED123F001031DE01F
:106F3000012B21D0022B01D000201DE0537913F04A
:106F4000800F03F00F0206D00E4B53F8223003F0EF
:106F50003003102B06E00B4B53F8223003F4405360
:106F6000B3F5805F03D1037843F001030370064B50
:106F70001B681B699847024810BDC04644020020A8
:106F80004E020020005C00404002002010B51E4B65
:106F90001A68517911F0800F21F0800005D01B4B49
:106FA00053F8203003F0300404E0184B53F820303D
:106FB00003F44054164B1B78984222D2538803BBEB
:106FC000FCB1937AEBB111F0800F09D00F4948F66C
:106FD000BF7351F8202002EA030383F0100308E096
:106FE0000A494BF68F7351F8202002EA030383F419
:106FF000805341F82030074B1B689B69984700205D
:1070000000E0022010BDC04644020020005C0040A9
:10701000A80000204002002010B5064B1A68537AE1
:1070200043F020035372044B1B68DB699847002030
:1070300010BDC0464402002040020020064B10B59F
:107040001A680C468646518A18B9A3885B1A1382BF
:1070500001E02368C81810BD4402002000B50C4BA5
:10706000844693F800E00B48002109E0036848F6E5
:107070008F7203EA02020A434B1C40F8042BD9B278
:107080007145F3D1044B4CF080021A6000BDC0463C
:10709000A8000020005C00404C5C00407047C046E7
:1070A00010B50C4B002093F82C10FFF791FE0A4B03
:1070B0001B68187A082807D1084B4FF480521A80B1
:1070C000074B4FF010021A80092814BF002001203E
:1070D00010BDC04678000020440200204A02002073
:1070E0004C02002070B52D4B1E68337A032B01D063
:1070F000052B45D1B269338AAAB1A3B1B48A9C42A7
:1071000028BF1C4620469047338A05461B1B338206
:10711000738A0020E3187382FFF73EFE2246014681
:107120002846FFF761FD338A5BB11D4B4FF4405297
:1071300000201A800146FFF73DFE1A4B4FF0300247
:107140001A80318AB38A8B4203D8144B1A680323FE
:1071500003E0124A19B11268052313720CE0126899
:1071600006231372104B114A1B689BB242F813108E
:107170000C4B4FF030021A80084B1B681A7A06E05D
:10718000072B03D10A4B1B68DB6898470822034B87
:107190001B681A72FFF784FF70BDC04644020020CE
:1071A0004A0200204C020020505C00400460004075
:1071B0001C0200201C4B2DE9F0411E68338A327AF4
:1071C0003BB9042A05D1194B4FF0100207271A804A
:1071D00025E0B48AA3428CBF022704279C4228BF23
:1071E0001C462046B369984705460020FFF7C6FDB8
:1071F000224601462846FFF7DFFC21460020FFF724
:10720000D9FD338A4FF030021B1B3382738AE41896
:10721000064B74821A80064B4FF440521A80024B80
:107220001B681F72BDE8F081440200204C02002060
:107230004A02002010B5134C2268137A022B01D0A9
:10724000042B04D1FFF7B6FF23681A7A14E0062B4B
:1072500011D15378052B0AD1137813F07F0F06D183
:10726000D078FFF7FBFE084B1B681B6A9847074B5B
:107270001B689B6898470822024B1B681A72FFF72D
:107280000FFF10BD44020020400200201C0200201D
:1072900070B5334B1A68137813F07F0004D1537A1A
:1072A00023F02003537259E0022856D15388002B53
:1072B00053D11379002B50D1517911F0800F21F067
:1072C000800405D0274B53F8243003F0300004E04D
:1072D000244B53F8243003F44050234B1B789C423A
:1072E0003BD2002839D0937A002B36D011F0800F92
:1072F0000FD01C4B53F8243003F03003102B26D151
:10730000E4B22046FFF706FD20463021FFF796FC49
:107310001DE0144D55F8243003F44053B3F5805F5D
:1073200015D13CB9114B204693F82C10FFF750FDB6
:107330002A6804E02046FFF7D9FC55F824204BF6D4
:107340008F7302EA030383F4405345F82430084B5B
:107350001B685B699847002000E0022070BDC046B2
:1073600044020020005C0040A800002078000020BB
:10737000400200208D4B2DE9F0411B688C4A8D4F57
:107380009BB252F813403A68137A092B1CD0A4B26E
:10739000640004F1804404F5C044254615F8013B1F
:1073A000137063783A680A345370B5F803003E6886
:1073B000FFF72EFD7080B5F807003E68FFF728FD47
:1073C000B0803B686488DC803B6801221A723A68AE
:1073D000D3885478002B61D1137813F07F032ED11A
:1073E000092C02D1FFF72EFD3BE0052C0DD192F9BF
:1073F0000330002B4DDB9378002B4AD19388002B70
:1074000047D1937A002B44D136E0032C0BD1D378AB
:10741000012B27D193882BBB537A13F0200F21D057
:10742000FFF7FAFD1DE0012C1CD1D378012B19D1F7
:107430009388BBB9537A13F0200F13D00AE0012BC5
:1074400004D10B2C0ED1FFF72DFD0AE0022B09D140
:10745000012C02D1FFF71CFF03E0032C02D1FFF740
:1074600095FD48B1544B20461B685B69984703283B
:1074700001D109220EE060B94C4B504A1B68002133
:107480009BB242F813104E4B4FF030021A80062286
:1074900000E00822474B1B681A72D1E0062C3E46DA
:1074A00018D1137813F07F0F40F094809378012B5C
:1074B00003D1414B1B68D9696EE0022B03D13E4BCF
:1074C0001B68196A68E0032B40F084803A4B1B6804
:1074D000596A61E0002C3DD15388002B7AD1536862
:1074E00023F47F43B3F5003F74D1137813F07F0387
:1074F00003D19388002B6DD12AE0012B0CD12E4BA8
:1075000050791B6821469B699847002862D13B68E7
:107510009B7A002B5ED01BE0022B5BD1517911F0DE
:10752000800F01F00F0205D0264B53F8223003F0F4
:10753000300004E0234B53F8223003F44050224B38
:107540001B789A4246D211F0700F43D1002841D0E7
:107550001E4922E0082C05D1137813F07F0F39D192
:107560001B491AE00A2C35D1137803F07F03012B55
:1075700030D1937A002B2DD0518859BB536823F416
:107580007F43B3F5803F25D10B4B50791B689B6936
:107590009847002852D01DE0E1B133684FF0000257
:1075A0005A82996100208847002020E0505C00400A
:1075B00008600040440200201C02002004600040DB
:1075C0004C020020005C0040A8000020F16E000882
:1075D0001D6E00081C4B1B681A6933685878904769
:1075E000032804D1194B1A680923137228E0174A9B
:1075F0004FF6FF7311680C8A9C4201D1092303E006
:10760000022800D014B908230B7219E091F9003058
:10761000002B0CDACB8812689C4288BF0B820A4B85
:107620001B6893F82C309382FFF7C4FD08E0032316
:107630000B72074B4FF440521A8001E00549ACE74A
:10764000FFF72EFDBDE8F0811C020020440200205F
:107650004A0200207D6E0008194B10B51B68D3F854
:10766000C4329847C0B20138042806D8DFE800F0D9
:1076700007090B0D0300172208E00C2206E0052283
:1076800004E0072202E00B2200E00F220D4B41F63E
:107690006A0192B299851A854FF060014FF000029D
:1076A0001A8619834FF0030240F635411A849986F1
:1076B0004FF0010248F200011A80A3F8441010BDF7
:1076C000D8000020002C0140024B4FF000021A802D
:1076D0007047C046002C014070B5134C134A236814
:1076E000134D23F00103236053686C2043F00F0314
:1076F00053602B68D3F8E83298470E4B0E49186058
:107700002B686C20D3F8E432984740F2A6532360EC
:1077100078236360094BA360094BE360236843F05F
:107720000103236070BDC046080002400000024013
:10773000D8000020500200209D7800084C24014011
:107740005802002010B5104C104A23686C2023F01A
:1077500001032360536843F00F0353600C4B1B6815
:10776000D3F8E4220B4B1968904740F2A1532360F1
:10777000A3F5B3636360084BA360084BE360236821
:1077800043F00103236010BD0800024000000240E6
:10779000D8000020500200204C240140FC4500206D
:1077A000074B084A002159609A604FF4A012DA6032
:1077B000054A1A610222D96219635A637047C046AA
:1077C0000024014001019000400100280A4A4FF4C2
:1077D000807353604FF4A013D3604FF020531361B4
:1077E000A3F11E53D36244F210231363034B53637C
:1077F000034B93607047C0460024014009420821B2
:1078000003019E00064A536823F00F035360536838
:1078100043F009035360136823F4706313607047E7
:1078200000080140064A536823F00F035360536871
:1078300043F004035360136843F48063136070479C
:1078400000080140064A074BDB68D2F8083323F0F2
:107850007F43C2F808334FF4006313607047C0469B
:1078600000E100E000ED00E00A4A10B5936943F43E
:10787000206343F014039361074B00221A60FFF763
:10788000E1FFFFF7BFFFFFF727FFFFF789FFFFF7D4
:10789000E3FE10BD0010024054020020084A1368A5
:1078A00013F0040F01D0074A04E0136813F0020F2D
:1078B00002D0054A054B1A60014B01225A607047FD
:1078C0000000024058020020D00200205402002094
:1078D00013B54FF4E06000F01FF800240B2301A85B
:1078E0008DF804308DF805408DF806408DF807407E
:1078F00000F01CF84FF40060214600F0A7F81CBD12
:1079000010B5FFF7E1FEFFF761FFFFF71BFFFFF781
:1079100089FFFFF7DDFF10BD40F0BE6040F420207E
:10792000014BD8607047C04600ED00E070B4C378EA
:10793000002B3DD0274BDB686FEA030303F4E063C1
:107940004FEA13234178C3F1040201FA02F14FF028
:107950000F0222FA03F2837802EA030242EA0102EA
:107960004FEA0212047804F003034FEAC30302FA59
:1079700003F2194E04F0FC003044D0F800534FF0ED
:10798000FF0101FA03F16FEA010303EA050302EACA
:10799000010242EA0302C0F800234FEA541204F045
:1079A0001F044FF0010303FA04F346F822300EE0FF
:1079B00003784FEA531103F01F034FF0010202FA5C
:1079C00003F24FEA8101044B0B44C3F8802070BCE2
:1079D0007047C04600ED00E000E100E030B4174D14
:1079E000EB686FEA030303F4E0634FEA1323C3F188
:1079F000040401FA04F14FF0FF0424FA03F302EA4D
:107A0000030242EA01024FEA021200F0C0034FEA09
:107A1000501000F0180005EB1315AB6904FA00F4E0
:107A20006FEA040404EA0304AC61AB6902FA00F2F1
:107A300042EA0302AA6130BC7047C04600ED00E094
:107A4000014B18607047C046D800424229B1074A2E
:107A5000D36940EA0303D36106E00449CA696FEAC7
:107A6000000303EA0203CB617047C04600100240E6
:107A70004543470000000000001201000200000022
:107A80004083041058000201020301090222000190
:107A90000100C032090400000103000000092110A8
:107AA0000100012215000705810378004006A0FFB0
:107AB0000901A1010903150026FF0F953C751081EE
:107AC00002C0040309042603530054004D0069005A
:107AD000630072006F0065006C0065006300740055
:107AE00072006F006E006900630073002003530092
:107AF00054004D0033003200200020004A006F0087
:107B0000790073007400690063006B001A034A0077
:107B10006F00790020002000200031002E0030008E
:107B2000300030003000436972636C654F5300567B
:107B300020312E370020726571756972656400000E
:107B40009D7000089D7000089D7000089D700008E1
:107B50009D7000089D7000089D7000089D700008D1
:107B60009D7000089D7000089D7000089D700008C1
:107B70009D7000089D7000089D7A000809000000B3
:107B8000AD7A000815000000C27A00080400000069
:107B9000C67A000826000000EC7A000820000000E9
:107BA0000C7B00081A0000008B7A000822000000FD
:107BB000797A00081200000049630008BD620008DD
:107BC0009161000895610008996100082162000830
:107BD00001620008AD6200089D6200088162000831
:107BE0000000000040000000020100009D7000083D
:107BF0009D7000089D7000089D7000089D70000831
:107C00009D7000089D7000089D7000089D70000820
:047C1000010000006F
:107F88000C000000FFFFFFFF0100017C0E0C0D003C
:107F98000C00000048040020106000085000000099
:107FA8004126000000616561626900011C00000053
:107FB800053700060A0902120414011501170318EF
:087FC8000119011A011E02005B
:04000005080060107F
:00000001FF
