:100000000C9465000C948D000C948D000C948D0064
:100010000C948D000C948D000C948D000C948D002C
:100020000C948D000C948D000C948D000C948D001C
:100030000C948D000C948D000C948D000C948D000C
:100040000C94B60A0C948D000C94E7010C94C10139
:100050000C948D000C948D000C948D000C948D00EC
:100060000C948D000C948D0000000008000201002B
:100070000003040700000000000000007C3C3E5E1E
:100080002B3D3F2F5B5D3B2C2A225C0000000000D3
:10009000250028002B0000000000240027002A0073
:1000A000040404040404040402020202020203031E
:1000B0000303030301020408102040800102040826
:1000C0001020010204081020CC1211241FBECFEF13
:1000D000D8E0DEBFCDBF11E0A0E0B1E0ECE3FFE28D
:1000E00002C005900D92AE3CB107D9F724E0AEEC0A
:1000F000B1E001C01D92A83FB207E1F710E0C5E6EC
:10010000D0E004C02197FE010E945013C436D107ED
:10011000C9F70E94F30E0C949C170C940000FC018C
:10012000538D448D252F30E0842F90E0821B930B5C
:10013000541710F0CF96089501970895FC01918D02
:10014000828D981761F0828DDF01A80FB11D5D9639
:100150008C91928D9F5F9F73928F90E008958FEFA7
:100160009FEF0895FC01918D828D981731F0828D5B
:10017000E80FF11D858D90E008958FEF9FEF0895B2
:10018000FC01918D228D892F90E0805C9F4F821B16
:1001900091098F739927089581EF93E00E94C00021
:1001A00021E0892B09F420E0822F0895FC01848D41
:1001B000DF01A80FB11DA35ABF4F2C91848D90E091
:1001C00001968F739927848FA689B7892C93A0896C
:1001D000B1898C91837080648C93938D848D9813F6
:1001E00006C00288F389E02D80818F7D8083089589
:1001F000EF92FF920F931F93CF93DF93EC0181E077
:10020000888F9B8D8C8D981305C0E889F989808132
:1002100085FD26C0F62E0B8D10E00F5F1F4F0F736C
:100220001127E02E8C8DE8120CC00FB607FCFACF18
:10023000E889F989808185FFF5CFCE010E94D6003B
:10024000F1CF8B8DFE01E80FF11DE35AFF4FF082D5
:100250009FB7F8940B8FEA89FB89808180620AC07E
:100260009FB7F894EE89FF896083E889F9898081D6
:100270008370806480839FBF81E090E0DF91CF91A5
:100280001F910F91FF90EF900895CF93DF93EC01B2
:10029000888D8823C9F0EA89FB89808185FD05C0A6
:1002A000A889B9898C9186FD0FC00FB607FCF5CFE0
:1002B000808185FFF2CFA889B9898C9185FFEDCF28
:1002C000CE010E94D600E7CFDF91CF91089580E064
:1002D00090E0892B29F00E94CC0081110C94000041
:1002E0000895DC015996ED91FC915A973097B9F039
:1002F00083899489A589B6894285538564857585E6
:10030000841B950BA60BB70B811520E89207A1055E
:10031000B10538F08FEF9FE7A0E0B0E0089580E0EE
:1003200090E00895CF93DF931F92CDB7DEB7698336
:10033000DC01ED91FC910280F381E02D41E050E081
:10034000BE016F5F7F4F09950F90DF91CF910895A8
:10035000089580E090E008956115710579F0FB0142
:1003600001900020E9F73197AF01461B570BDC01E4
:10037000ED91FC910280F381E02D099480E090E002
:1003800008951F920F920FB60F9211242F933F934F
:100390004F935F936F937F938F939F93AF93BF938D
:1003A000EF93FF9381EF93E00E94D600FF91EF91CE
:1003B000BF91AF919F918F917F916F915F914F917D
:1003C0003F912F910F900FBE0F901F9018951F9285
:1003D0000F920FB60F9211242F938F939F93EF9349
:1003E000FF93E0910104F09102048081E091070401
:1003F000F091080482FD12C0908180910A048F5F01
:100400008F7320910B04821751F0E0910A04F0E001
:10041000EF50FC4F958F80930A0401C08081FF91BB
:10042000EF919F918F912F910F900FBE0F901F9082
:1004300018958FB7F8948091CF018FBF089561E030
:10044000FC0184810E94750E8091CE018111109271
:10045000CE0108958EBD00000DB407FEFDCF8EB510
:1004600008958FEF0C942A020F931F93CF93DF937D
:10047000EB010E94E70E8B010E9431028F3F49F091
:100480000E94E70E601B710B6C177D07A8F380E0DC
:1004900001C081E0DF91CF911F910F910895CF931B
:1004A000DF93EC018E81882389F08F8198859C01F0
:1004B0002F5F3F4F38872F838230924018F40E947D
:1004C0003102F3CFCE010E941F021E82DF91CF9135
:1004D00008958CBD9DBD0895CF93DF93EC0180916D
:1004E000CE01811109C081E08093CE0180918E04FC
:1004F00090918F040E94690260E08C81DF91CF911E
:100500000C94750E8F929F92AF92BF92FF920F93B1
:100510001F93CF93DF93EC01F62E49015A010E94FD
:100520004F02CE010E946C026CE271E0CE010E948B
:1005300034028F2D80640E942A0208E110E0D50168
:10054000C401002E04C0B695A795979587950A9487
:10055000D2F70E942A0208501109083F8FEF1807AE
:1005600071F7FF2029F088E0F81204C087E803C083
:1005700085E901C08FEF0E942A0210E00E9431023B
:100580008A8787FF04C01F3F11F01F5FF7CFDF91FD
:10059000CF911F910F91FF90BF90AF909F908F9040
:1005A0000895AF92BF92CF92DF92EF92FF920F9396
:1005B0001F93CF93DF93EC016901C801820F931F52
:1005C0008130924008F070C08E81882371F088815C
:1005D0009981AA81BB8184179507A607B70729F4DB
:1005E0008F819885C816D906B0F5488359836A83E8
:1005F0007B838B85833039F089E0440F551F661F5C
:10060000771F8A95D1F79A01AB0161E1CE010E9473
:100610008202882319F083E08D8346C00E94E70E92
:100620005B010E9431028A878F3F49F40E94E70EE6
:100630006A197B096D327140A0F38FE003C08E3FD1
:1006400031F08DE08D83CE010E941F022DC01886EF
:100650001F8281E08E838F8198858C159D0540F4E3
:100660000E9431028F819885019698878F83F3CFFE
:100670006701E00EF11EEC14FD0431F00E9431021E
:10068000F60181936F01F7CF8F819885080F191FAD
:1006900018870F838985882319F00115124048F0C7
:1006A000CE010E944F0205C0CE010E941F0280E0D1
:1006B00001C081E0DF91CF911F910F91FF90EF90EA
:1006C000DF90CF90BF90AF900895EF92FF920F937D
:1006D0001F93CF93DF93EC0179014115510561051B
:1006E000710511F482E13CC08B85833039F089E0DB
:1006F000440F551F661F771F8A95D1F79A01AB01EA
:1007000068E1CE010E948202882311F084E028C0B3
:100710008EEF0E942A0287018EEFF81AF80181916C
:100720008F010E942A02E016F106C1F78FEF0E94A6
:100730002A028FEF0E942A020E9431028A878F715B
:10074000853031F081E18D83CE010E941F0209C006
:1007500068E572E0CE010E943402811107C085E194
:100760008D83CE010E941F0280E014C020E030E0A3
:10077000A9016DE0CE010E948202811109C00E9490
:100780003102811105C0CE010E941F0281E002C02A
:1007900084E1E6CFDF91CF911F910F91FF90EF9011
:1007A00008958091EE018823A9F1409100015091B4
:1007B000010160910201709103012FEE31E08091FF
:1007C000EF039091F0030E946503811102C080E065
:1007D00008954091D0015091D1016091D201709162
:1007E000D301411551056105710591F02FEE31E0FE
:1007F0008091EF039091F0030E946503882339F301
:100800001092D0011092D1011092D2011092D30116
:100810001092EE0181E008958F929F92AF92BF9265
:10082000EF92FF920F931F93CF934B015C01C42F64
:100830008091000190910101A0910201B09103010A
:1008400088159905AA05BB0501F10E94D103811104
:1008500002C080E020C08FEEE82E81E0F82E00E09C
:1008600012E020E030E0B501A4018091EF03909107
:10087000F0030E94D102882361F3809200019092DC
:100880000101A0920201B09203018091EE01C82BF8
:10089000C093EE0181E0CF911F910F91FF90EF90F7
:1008A000BF90AF909F908F9008954F925F926F92FC
:1008B0007F928F929F92AF92BF92CF92DF92EF92F0
:1008C000FF920F931F93CF93DF93EC0142305105BA
:1008D0006105710510F480E078C089859A85AB8543
:1008E000BC850196A11DB11D84179507A607B70702
:1008F00090F3CB88DC88ED88FE888F89803129F4DD
:10090000BB27A72F962F852F09C0DB01CA01E7E07F
:10091000B695A79597958795EA95D1F7480159011E
:100920002A013B01C80ED91EEA1EFB1E8091000160
:1009300090910101A0910201B0910301C816D9065E
:10094000EA06FB0681F48F898031A9F4B301A20184
:10095000552766277727440F551FFA01E151FE4FAF
:100960009182808219C040E0C701B6010E940C0448
:100970008111E9CFB0CFB301A2014F775527662788
:100980007727440F551F440F551FFA01E151FE4FC1
:1009900080829182A282B3828091EE0181608093F5
:1009A000EE018A89823080F08D819E81AF81B88589
:1009B000C80ED91EEA1EFB1EC092D001D092D101F2
:1009C000E092D201F092D30181E0DF91CF911F91AB
:1009D0000F91FF90EF90DF90CF90BF90AF909F90DE
:1009E0008F907F906F905F904F9008958F929F921D
:1009F000AF92BF92CF92DF92EF92FF920F931F932D
:100A0000CF93DF93FC0181859285A385B485019600
:100A1000A11DB11D84179507A607B70710F480E044
:100A20005BC083889488A588B6888789803129F43B
:100A3000BB27A72F962F852F09C0DB01CA01C7E06E
:100A4000B695A79597958795CA95D1F7E9016A015B
:100A50007B018F01BC01CD01680D791D8A1D9B1D95
:100A60008090000190900101A0900201B0900301DC
:100A7000681579058A059B0591F4F801878980310D
:100A8000A1F4DD24EE24FF24C601880F991FFC0188
:100A9000E151FE4F80819181A0E0B0E018C040E0BC
:100AA0000E940C048111E9CFBACFE894C7F8DD2485
:100AB000EE24FF24C601880F991F880F991FFC019F
:100AC000E151FE4F80819181A281B381BF70888303
:100AD0009983AA83BB8381E0DF91CF911F910F910E
:100AE000FF90EF90DF90CF90BF90AF909F908F904E
:100AF00008958F929F92AF92BF92CF92DF92EF9222
:100B0000FF920F931F93CF93DF93EC018D8181119F
:100B100002C080E078C00B891C892D893E890417AA
:100B2000150726073707A8F36A017B01823029F4ED
:100B3000CA86DB86EC86FD860DC0C114D104E104B3
:100B4000F10451F41E821F82188619861A861B86AC
:100B50001C861D8681E057C08A849B84AC84BD843A
:100B6000EB8DFC8D258530E0275F3F4FB501A4015B
:100B70004150510961097109022E04C076956795AB
:100B8000579547950A94D2F7D701C6010197A10955
:100B9000B10904C0B695A795979587952A95D2F780
:100BA00084179507A607B70720F089288A288B287D
:100BB00071F44F89588D698D7A8D4E835F83688774
:100BC00079874C015D018E010A5F1F4F16C0841B9F
:100BD000950BA60BB70BF5CF4E815F8168857985A4
:100BE00098018B8D9C8D0E94F60491E0891A9108E2
:100BF000A108B108882309F48CCF81149104A104C1
:100C0000B10451F795CFDF91CF911F910F91FF90D4
:100C1000EF90DF90CF90BF90AF909F908F9008950E
:100C20003F924F925F926F927F928F929F92AF927C
:100C3000BF92CF92DF92EF92FF920F931F93CF93C9
:100C4000DF93CDB7DEB72C970FB6F894DEBF0FBE9B
:100C5000CDBF5C01DC015B968D909C905C971696F5
:100C6000CD90DD90ED90FC901997C114D104E10472
:100C7000F10439F0BFEFCB1ADB0AEB0AFB0A312C87
:100C800007C0F401C080D180E280F3803324339424
:100C9000F40181859285A385B4859C01AD012F5F08
:100CA0003F4F4F4F5F4F29873A874B875C8726011D
:100CB00037011D821E821F821886F401818592856C
:100CC000A385B4852D813E814F815885281739072A
:100CD0004A075B0708F063C089859A85AB85BC85A8
:100CE0008C159D05AE05BF0550F482E0C82ED12CB1
:100CF000E12CF12C92E0492E512C612C712C9E019B
:100D00002F5F3F4FB701A601C4010E94F60488235C
:100D100009F445C089819A81AB81BC81892B8A2BDA
:100D20008B2B41F0260137019FEF491A590A690AB6
:100D3000790A05C0C414D504E604F70491F02D81A6
:100D40003E814F8158852F5F3F4F4F4F5F4F2D831F
:100D50003E834F8358873FEFC31AD30AE30AF30A4F
:100D6000ACCF0FEF1FEF2FEF3FE0B301A201C401A3
:100D70000E945504882399F0D50116964D915D91F6
:100D80006D917C911997411551056105710549F0E7
:100D900093018201C4010E945504811102C080E0C8
:100DA0002AC0D50116964D925D926D927C9219974C
:100DB000332051F0D301C2010196A11DB11DF401F0
:100DC00080839183A283B383F5018789908DA18D60
:100DD000B28D892B8A2B8B2B69F4D50157964D92B6
:100DE0005D926D927C925A9714968C9114978068BC
:100DF00014968C9381E02C960FB6F894DEBF0FBE4C
:100E0000CDBFDF91CF911F910F91FF90EF90DF90B9
:100E1000CF90BF90AF909F908F907F906F905F909A
:100E20004F903F900895CF93DF93EC018D818823FD
:100E300079F18C8187FF28C06E857F8588899989A3
:100E400041E00E940C04882319F1EA8980E2E89FBE
:100E5000F0011124E151FE4F3097D1F08D818230A5
:100E600040F48B899C89AD89BE89848F958FA68F2C
:100E7000B78F8F89988DA98DBA8D938F828FB58BFF
:100E8000A48B8C818F778C83DF91CF910C94D103CD
:100E900080E0DF91CF910895CF93DF93EC010E9422
:100EA0001307882311F01D8281E0DF91CF9108950F
:100EB000FC01818D928D009711F00C941307089519
:100EC0002F923F924F925F926F927F928F929F925A
:100ED000AF92BF92CF92DF92EF92FF920F931F9348
:100EE000CF93DF9300D000D0CDB7DEB78C015B018C
:100EF0001A01DC0115968C9115978130C9F414966E
:100F00008C9181FF15C082FF1DC0F801438954896F
:100F10006589768982859385A485B585841795072B
:100F2000A607B70779F0C8010E94790581110AC0A8
:100F300081E090E0D80113969C938E93129780E005
:100F400090E036C1610183C05B968D919C915C9766
:100F5000FC0174802FEF270D2A013B0139E07694C4
:100F60006794579447943A95D1F7722E74207A017A
:100F7000F1E0FF22772009F476C080E092E08E193C
:100F80009F0946018C159D0508F44C01D8015B961C
:100F90002D913C915C9716968D919D910D90BC91F1
:100FA000A02D0297A109B109F901058404C0880F99
:100FB000991FAA1FBB1F0A94D2F7468557856089DF
:100FC0007189840F951FA61FB71F9C01AD01270DC6
:100FD000311D411D511D29013A01811432E0930652
:100FE00009F088C08091000190910101A091020157
:100FF000B0910301481659066A067B0659F48FEF33
:101000009FEFDC018093000190930101A093020106
:10101000B09303019501B301A2018091EF03909178
:10102000F0030E946503882309F482CF9EEFB91A6A
:10103000C818D908F80182859385A485B585880DDF
:10104000991DA11DB11D82879387A487B587D801FB
:101050001A964D915D916D917C911D97C114D104AB
:1010600009F072CF87C0E114F10409F086CF16961B
:101070004D915D916D917C911997411551056105D7
:10108000710559F457968D919D910D90BC91A02DAD
:101090000097A105B10541F521C09E012F5F3F4F8B
:1010A0000E94F604882309F44BCF89819A81AB8191
:1010B000BC81F801238D348DF9012789203129F075
:1010C00048EF5FEF6FEF7FE004C048EF5FEF60E055
:1010D00070E084179507A607B70730F0C8010E9493
:1010E000100681114ACF24CFF80186839783A08709
:1010F000B18743CFE114F10429F5D8011A964D9137
:101100005D916D917C911D9753968D919D910D9060
:10111000BC91A02D481759076A077B0798F00E94D9
:10112000D103882309F404CF4092000150920101B9
:1011300060920201709203018091EE0181608093C0
:10114000EE0108C041E0C301B2010E940C048823F3
:1011500009F4EECED501F701E151FE4F9F01280DB4
:10116000391D2E173F0719F08D918193FACFA80CE6
:10117000B91C5ECFF80183899489A589B689841743
:101180009507A607B70738F4438B548B658B768B8E
:10119000848180688483F801848183FD02C0C10159
:1011A00007C0C8010E941307882309F4C1CEF7CFF6
:1011B0000F900F900F900F90DF91CF911F910F9193
:1011C000FF90EF90DF90CF90BF90AF909F908F9067
:1011D0007F906F905F904F903F902F900895CF93A6
:1011E000DF931F92CDB7DEB7698341E050E0BE01C7
:1011F0006F5F7F4F0E9460070F90DF91CF9108953E
:10120000CF93DF93EC01898D9A8D009739F481E0BB
:1012100090E09B838A8380E090E00BC0FC01138206
:1012200012820E946007E98DFA8D22813381232B7F
:1012300071F7DF91CF910895FC01DB0112968D913A
:101240009C9113979383828382E291E091838083C0
:1012500014968C911497848315968C911597858399
:1012600016964D915D916D917C91199746835783A8
:10127000608771871A964D915D916D917C911D9754
:1012800042875387648775871E964D915D916D9156
:101290007C91519746875787608B718B52968C91C2
:1012A0005297828B53964D915D916D917C9156979B
:1012B000438B548B658B768B57964D915D916D91D9
:1012C0007C915A97478B508F618F728F5B968D916F
:1012D0009C915C97948F838F08954F925F926F9249
:1012E0007F92AF92BF92CF92DF92EF92FF920F93D5
:1012F0001F93CF93DF931F92CDB7DEB7FC012581FB
:10130000222309F4C1C0848180FFBEC083899489EF
:10131000A589B689428453846484758484159505AF
:10132000A605B70509F4B0C06F015201F1E0BF2274
:10133000D6015B968D919C915C97B301A20139E037
:1013400076956795579547953A95D1F7223071F480
:10135000FC01828D938DA48DB58D8A019B01080FB0
:10136000191F2A1F3B1FC901B8014AC0DC0114968E
:101370001C9111501423A114B104F9F411111DC0D2
:1013800045284628472851F4F6018789908DA18D7C
:10139000B28D86839783A087B1870FC0D60116963A
:1013A0004D915D916D917C91199796012A5F3F4F08
:1013B0000E94F604882309F467C0F601238D348D5A
:1013C00086819781A085B1850297A109B109AC01F9
:1013D000BD01F901058404C0440F551F661F771F26
:1013E0000A94D2F786859785A089B189840F951FC5
:1013F000A61FB71FBC01CD01610F711D811D911D7D
:10140000D60114962C9126FF0DC0409000015090FB
:1014100001016090020170900301461657066806AC
:10142000790699F440E00E940C04882369F1F501E3
:10143000E151FE4FDE0111969F012F5F3F4F2E17A6
:101440003F0799F081918D93FACFFE0131967F018C
:1014500001E010E09501AB01BC018091EF03909198
:10146000F0030E94D102882379F0F60182859385EA
:10147000A485B5850196A11DB11D82879387A48798
:10148000B587898190E002C08FEF9FEF0F90DF91C9
:10149000CF911F910F91FF90EF90DF90CF90BF9071
:1014A000AF907F906F905F904F900895FC01818D79
:1014B000928D009711F00C946D098FEF9FEF0895B6
:1014C0000F931F93CF93DF93FC01818D928D009733
:1014D000B9F0EF010E946D098C010F3F8FEF1807E3
:1014E00091F0898D9A8DFC014285538564857585BF
:1014F00041505109610971090E947905C80105C06F
:1015000080E090E002C08FEF9FEFDF91CF911F91BD
:101510000F910895CF92DF92EF92FF920F931F9356
:10152000CF93DF936C017A018B01C0E0D0E0CE1540
:10153000DF0581F0D8016D918D01D601ED91FC910F
:101540000190F081E02DC6010995892B11F02196BB
:10155000EECF7E01C701DF91CF911F910F91FF90D8
:10156000EF90DF90CF9008950E9486141F920F9203
:101570000FB60F9211242F933F938F939F93AF93A6
:10158000BF938091E6019091E701A091E801B091AD
:10159000E9013091E50123E0230F2D3720F4019676
:1015A000A11DB11D05C026E8230F0296A11DB11D86
:1015B0002093E5018093E6019093E701A093E80171
:1015C000B093E9018091EA019091EB01A091EC01C7
:1015D000B091ED010196A11DB11D8093EA01909398
:1015E000EB01A093EC01B093ED01BF91AF919F91FE
:1015F0008F913F912F910F900FBE0F901F901895D4
:101600004F925F926F927F92AF92BF92CF92DF9292
:10161000EF92FF920F931F93CF93DF9300D000D0F0
:10162000CDB7DEB78C0149835A836B837C83590124
:10163000C12CD12C7601412C82E0582E612C712CCA
:1016400049815A816B817C819E012F5F3F4FC80188
:101650000E94F604882351F1D301C201F8010584E8
:1016600004C0880F991FAA1FBB1F0A94D2F7C80E87
:10167000D91EEA1EFB1E49815A816B817C818789B4
:10168000803129F088EF9FEFAFEFBFE004C088EF13
:101690009FEFA0E0B0E0481759076A077B0780F288
:1016A000F501C082D182E282F38281E00F900F9037
:1016B0000F900F90DF91CF911F910F91FF90EF90BE
:1016C000DF90CF90BF90AF907F906F905F904F90E2
:1016D0000895CF93DF93EC0180E2689FF00111241D
:1016E000E151FE4F6A8B8091000190910101A09120
:1016F0000201B09103018E879F87A88BB98B448923
:10170000558960E070E0BA0155274427828D938D9A
:10171000A0E0B0E0482B592B6A2B7B2B4F8B588FC6
:10172000698F7A8F8385887151F4848D958DA68D0C
:10173000B78D8B8B9C8BAD8BBE8B81E00EC08031C7
:1017400011F080E015C09E012D5E3F4F8B8D9C8D6A
:101750000E94000B8823A9F384E08D8381E08C83B1
:101760001E821F82188619861A861B861C861D8675
:10177000DF91CF910895CF93DF93FC012581222340
:1017800011F080E049C0EC018091B3048031C1F4D4
:1017900082E08583178A108E118E128E8091B40498
:1017A0009091B504A0E0B0E025E0880F991FAA1F32
:1017B000BB1F2A95D1F7838B948BA58BB68B19C051
:1017C0008032F9F683E085834091B6045091B704E6
:1017D0006091B8047091B904478B508F618F728FFC
:1017E0009F012D5E3F4F8CE994E00E94000B8823FF
:1017F00041F28CE994E09C8F8B8F81E08C831E8278
:101800001F82188619861A861B861C861D861E86D0
:101810001F86188A198A1A8ADF91CF9108958F92AC
:101820009F92AF92BF92CF92DF92EF92FF92CF93AF
:10183000DF93C82F80E994E09093F0038093EF0347
:10184000CC2369F1C53010F080E00CC140E060E0CD
:1018500070E0CB010E940C048823B1F320E1C29F09
:10186000C001112481529E4FFC01E254FE4F2081A1
:101870002F7751F73C9640815181628173814436C4
:1018800051056105710500F33497C080D180E28075
:10189000F380C114D104E104F10421F4D5CFC12CAB
:1018A000D12C760140E0C701B6010E940C048823C8
:1018B00059F28091FA019091FB018115924021F635
:1018C000A091FF01AA2309F4BFCF6091FD0170919F
:1018D000FE016115710509F4B7CF2091FC012223A7
:1018E00009F4B2CFA093AE042093A00480E030E0CE
:1018F00041E050E0C82FFA01082E02C0EE0FFF1F92
:101900000A94E2F72E173F0739F08F5FC83091F73E
:1019100089E08093A90498CF8093A90420910502BF
:10192000309106022115310519F040E050E008C061
:101930002091130230911402409115025091160229
:101940002093A1043093A2044093A3045093A404D1
:1019500046015701860E971EA11CB11C8092AF0450
:101960009092B004A092B104B092B204E09100024F
:10197000F0910102F093B504E093B404B0E00E944A
:101980004513860E971EA81EB91E8092B60490922B
:10199000B704A092B804B092B90485E0EE0FFF1F1F
:1019A0008A95E1F7E150FE4FEF2FFF27E6958E0E67
:1019B0009F1EA11CB11C8092AA049092AB04A0921D
:1019C000AC04B092AD0420910202309103022115C3
:1019D000310521F0A90160E070E008C040910F02DC
:1019E000509110026091110270911202D701C6014C
:1019F00088199909AA09BB09840F951FA61FB71F4B
:101A000004C0B695A79597958795CA95D2F7809308
:101A1000A5049093A604A093A704B093A804853FBF
:101A20002FE09207A105B10510F48CE018C0853FA6
:101A30009F4FA105B10510F480E111C080911B02F8
:101A400090911C02A0911D02B0911E028093B604D9
:101A50009093B704A093B804B093B90480E2809344
:101A6000B30481E0DF91CF91FF90EF90DF90CF90B2
:101A7000BF90AF909F908F90089590E0FC01EC5440
:101A8000FF4F2491FC01E056FF4F8491882399F089
:101A900090E0880F991FFC01EA56FF4FA591B49181
:101AA000FC01E457FF4F859194918FB7F894EC9126
:101AB000E22BEC938FBF0895EF92FF920F931F9349
:101AC000CF93DF93EC017B018A011B821A8288EE9F
:101AD00093E0A0E0B0E08C839D83AE83BF838CE471
:101AE00091E0998388838DE190E00E9465139A8F3D
:101AF000898F009779F02DE1F701DC0101900D92BB
:101B00002A95E1F74CE050E0B801CE010C960E9416
:101B1000A314188EDF91CF911F910F91FF90EF903A
:101B20000895AF92BF92CF92DF92EF92FF920F9300
:101B30001F93CF93DF93CDB7DEB72B970FB6F894F3
:101B4000DEBF0FBECDBF6C01FE013196CE010C96FB
:101B50007F0120E22193E817F907E1F7DA0120E09D
:101B600037E09D91992331F19E3231F43A3009F4F6
:101B7000AAC028E03AE0F5CFECE7F0E084918823B2
:101B800021F031969813FACF9EC0321708F49BC00B
:101B90008FED890F8E3508F096C081E0820FF70136
:101BA000E20FF11D2FE9290F2A3108F4905290839A
:101BB000282FD7CF8981803209F485C08B01FB01A2
:101BC000838D948DF601948F838FFB01168217828B
:101BD000108611861286138614861586B12CF8019C
:101BE00082859385A485B5854389548965897689DD
:101BF00084179507A607B70708F065C025E0B695D6
:101C0000A795979587952A95D1F7F82FFF70AF2E56
:101C1000F8018581823008F456C0C8010E946D0920
:101C200097FD51C0F80182859385A485B5854F96AF
:101C3000A11DB11D82879387A487B587F0E2AF9E6F
:101C4000B001112461517E4F61157105E1F1FB0175
:101C500080818823F1F0853E99F14BE050E0C70187
:101C60000E948B14892B09F0BACF6A2DC6012B96DE
:101C70000FB6F894DEBF0FBECDBFDF91CF911F919D
:101C80000F91FF90EF90DF90CF90BF90AF900C94AA
:101C9000690BB11018C0F601A28A809100019091E1
:101CA0000101A0910201B091030186879787A08B63
:101CB000B18BFB018081882331F0BB24B3948FCF9B
:101CC000B110FBCFE8CF80E02B960FB6F894DEBFC3
:101CD0000FBECDBFDF91CF911F910F91FF90EF907D
:101CE000DF90CF90BF90AF90089590E0FC01E8594D
:101CF000FF4F2491FC01EC54FF4F3491FC01E0565E
:101D0000FF4FE491EE2309F43CC0222339F1233044
:101D100091F038F42130A9F0223001F584B58F7D9F
:101D200012C0273091F02830A1F02430B9F480910E
:101D300080008F7D03C0809180008F77809380002A
:101D40000DC084B58F7784BD09C08091B0008F77B6
:101D500003C08091B0008F7D8093B000F0E0EE0F63
:101D6000FF1FE457FF4FA591B4919FB7F8946111FD
:101D700004C08C913095382302C0EC913E2B3C93EB
:101D80009FBF08953FB7F8948091EA019091EB01CD
:101D9000A091EC01B091ED0126B5A89B05C02F3FA5
:101DA00019F00196A11DB11D3FBFBA2FA92F982F81
:101DB0008827820F911DA11DB11DBC01CD0142E0FC
:101DC000660F771F881F991F4A95D1F708952FB77F
:101DD000F8946091E6017091E7018091E80190919B
:101DE000E9012FBF0895CF93DF93CDB7DEB7CA5770
:101DF000D1090FB6F894DEBF0FBECDBF789484B57D
:101E0000826084BD84B5816084BD85B5826085BDF6
:101E100085B5816085BD80916E00816080936E0084
:101E20001092810080918100826080938100809176
:101E30008100816080938100809180008160809327
:101E400080008091B10084608093B1008091B000E7
:101E500081608093B00080917A00846080937A00E2
:101E600080917A00826080937A0080917A0081600C
:101E700080937A0080917A00806880937A00109233
:101E8000C1000E94C20E4B015C01E8E8CE2EE3E1E6
:101E9000DE2EE12CF12C0E94C20EDC01CB01881950
:101EA0009909AA09BB09883E9340A105B10598F399
:101EB00021E0C21AD108E108F10838EE830E33E0C0
:101EC000931EA11CB11CC114D104E104F10419F743
:101ED000E0910104F091020482E08083E091FD032F
:101EE000F091FE031082E091FF03F09100048FEC6B
:101EF000808310920904E0910504F091060486E0C5
:101F00008083E0910304F0910404808180618083E8
:101F1000E0910304F0910404808188608083E09163
:101F20000304F0910404808180688083E0910304BD
:101F3000F091040480818F7D80838091BF04882389
:101F400021F08AEB94E00E944C0710929B041092BF
:101F5000990410929604109295048AE08093940458
:101F60000E94E70E8B01809194040E943D0D61E078
:101F7000809194040E94750EFFB6F8948091D4016C
:101F8000811124C0EAEAF0E08491EEEBF0E0949154
:101F9000E82FF0E0EE0FFF1FEA56FF4FA591B49136
:101FA000EC91E92321F461E08AE00E94750E8AE059
:101FB0000E943D0D8CB580618CBD8CB580648CBD5C
:101FC0008DE00E943D0D8BE00E943D0D8091D4017B
:101FD0008F5F8093D401FFBE82E580938E041092C0
:101FE0008F0480918E0490918F040E9469026AE0B0
:101FF000F62E8FEF0E942A02FA94F110FACF80E9B0
:1020000094E00E946C0220E030E0A90160E080E9E9
:1020100094E00E948202F82E80939A04F1E08F17D8
:1020200049F00E94E70E601B710B613D774058F349
:1020300081E056C02AEA31E040E050E068E080E903
:1020400094E00E94820282FF03C0F0929B0410C0C1
:1020500054E0F52E0E94310280939A04FA94F11014
:10206000F9CF8A3A11F082E03BC082E080939B0472
:1020700080919B04823021F0C12CD12C760105C0C7
:10208000C12CD12CE12C40E4F42E20E030E0A90159
:1020900067E380E994E00E948202A701960169E269
:1020A00080E994E00E94820280939A04882349F098
:1020B0000E94E70E601B710B613D774030F388E0B2
:1020C0000FC080919B04823001F520E030E0A9012F
:1020D0006AE380E994E00E948202882341F086E06E
:1020E0008093950480E994E00E941F0228C00E941A
:1020F0003102807C803C19F483E080939B040E9431
:1021000031020E9431020E94310280E994E00E9473
:102110001F0280E580938E0410928F0481E00E945C
:102120000F0C882339F08AEB94E00E94BB0B8823C4
:1021300031F012C080E00E940F0C8111F4CF6AE5EB
:1021400071E081EF93E00E94AC0167E971E081EFFB
:1021500093E00E94AC01FFCF6AE971E081EF93E068
:102160000E94AC0167E971E081EF93E00E94AC014D
:1021700022E2A22E21E0B22E3AE0432E512C612C15
:10218000712C8091E3019091E40101969093E40118
:102190008093E3019F938F938FEB91E09F938F93B5
:1021A00087ED91E09F938F930E94B21423961FAE08
:1021B0001EAE23972196BFAEAEAE219725961FAED9
:1021C00025971DA21CA2BBA2AAA21FA20F900F902E
:1021D0000F900F900F900F90812C912CCE01CF96E5
:1021E0006C019AEBE92E94E0F92EC401F401E95256
:1021F000FE4F20812F3209F40196DC01A952BE4F17
:10220000FE01E45AFF4F20E030E08F014D914F3244
:1022100049F0442339F02F5F3F4F019641932C3012
:102220003105A1F7F801E20FF31F1082FC01E9521A
:10223000FE4F20812F3209F401964C01FC01E95236
:10224000FE4F30801C821B82BA82A9821E82A801A6
:10225000B701CE0101960E94910D882359F1CE015C
:1022600001960E944C073320D9F0F6018581811137
:1022700021C0A801B701C6010E94910D382EFAEBCA
:10228000EF16F4E0FF0609F480C1C7010E944C0775
:102290003320C1F09E2D8F2D7601C92ED82EA5CFCB
:1022A0002AEBE21624E0F20609F46CC1C7010E9491
:1022B0004C0768C1BAEBEB16B4E0FB0619F0C70196
:1022C0000E944C071DA21CA2BBA2AAA21FA21C8294
:1022D0001B82BA82A9821E824E0132E2830E911CB9
:1022E000C4010E94BB0BCE0101966C01140187ED65
:1022F000E82E81E0F82E6FE270E0C7010E9498148A
:10230000009709F448C0D7012C912F3221F4BFEF78
:10231000EB1AFB0AF0CF8E198D3008F08CE0E82F15
:10232000F0E0E996FFAFEEAFE997AF01B701C80162
:102330000E94A314E996EEADFFADE997E00FF11FFF
:102340001082C6010E944C07D60115968C918823F5
:1023500061F023961FAE1EAE23972196BFAEAEAEA0
:10236000219725961FAE259722C0A801B101C6016D
:102370000E94910D882369F3E996EEADFFADE997D0
:10238000EE0EFF1EC1010E944C07922D832D1601F7
:10239000C92ED82EB0CF9701275D3140EB963FAFC5
:1023A0002EAFEB97B101CE01CF960E941C09EB96A0
:1023B0008EAD9FADEB9789529E4F7C01DC018C91D5
:1023C00081110AC0BE01615C7F4FCE0101960E945F
:1023D0001C0949EC51E030C01DA21CA2BBA2AAA25C
:1023E0001FA225968FAD2597811113C0F801138286
:1023F000128288EE93E0A0E0B0E084839583A68308
:10240000B7838CE491E091838083128E118E1486C1
:1024100019C0A701BE01615C7F4FC4010E94910DEC
:10242000882321F3CE01CF960E944C07B401CE0140
:1024300001960E941C09A701BE016F5F7F4FC80172
:102440000E945C0DD80112968D919C9113979093E8
:10245000DC048093DB0414968D919D910D90BC91CA
:10246000A02D8093DD049093DE04A093DF04B0934D
:10247000E004F80180859185A285B3858093E1040D
:102480009093E204A093E304B093E404D8011C9673
:10249000E5EEF4E08D91819324E0E23FF207D1F77D
:1024A000D8015996ED91FC915A97F093F304E0937B
:1024B000F204309709F466C08581882309F462C06C
:1024C0008091D5019091D60101969093D601809389
:1024D000D50180E480937C0080917A0080648093B1
:1024E0007A0080917A0086FDFCCF8091780020915F
:1024F000790090E0922B6C01092E000CEE08FF0889
:1025000097FF20C06DE289ED94E00E94920122279E
:102510003327A9012C193D094E095F0919A28E0123
:102520000F5D1F4FCA01B901A30192010E9423133D
:10253000605DF80162938F01211531054105510558
:1025400089F715C0A701960119A28E010F5D1F4FD3
:10255000CA01B901A30192010E942313605DD80151
:102560006E938D01211531054105510589F7B8019B
:1025700089ED94E00E94AC016BEC71E089ED94E090
:102580000E94AC010E946701FCCD882309F49ACE19
:10259000DE0192967D017ECEE1EFF3E0138212829E
:1025A00088EE93E0A0E0B0E084839583A683B783B0
:1025B00020E131E03183208325EC30E0358724872A
:1025C00024EC30E03787268720EC30E0318B208BFD
:1025D00021EC30E0338B228B22EC30E0358B248BE6
:1025E00026EC30E0378B268B118E128E138E148ED4
:1025F000EEE8F4E020E520831182E0E9F4E01582C2
:1026000016821186138642E050E060E070E0448755
:1026100055876687778713A215A614A622E231E0B4
:1026200033A722A717A6E9EDF4E013821282848370
:102630009583A683B7838CE491E091838083128E87
:10264000118E14860895A1E21A2EAA1BBB1BFD0150
:102650000DC0AA1FBB1FEE1FFF1FA217B307E40781
:10266000F50720F0A21BB30BE40BF50B661F771FD9
:10267000881F991F1A9469F76095709580959095B9
:102680009B01AC01BD01CF0108950E945613A59F87
:10269000900DB49F900DA49F800D911D112408955D
:1026A000EE0FFF1F0590F491E02D0994A29FB00159
:1026B000B39FC001A39F700D811D1124911DB29F76
:1026C000700D811D1124911D08950F931F93CF93B9
:1026D000DF938230910510F482E090E0E091F604FF
:1026E000F091F70420E030E0A0E0B0E0309719F17D
:1026F000408151810281138148175907C8F084171E
:10270000950769F4109731F012960C93129713966F
:102710001C9327C00093F6041093F70422C02115E0
:10272000310519F04217530718F49A01BD01EF0162
:10273000DF01F801DBCF21153105F9F0281B390B3A
:102740002430310580F48A819B816115710521F067
:10275000FB019383828304C09093F7048093F60473
:10276000FE01329644C0FE01E20FF31F8193919364
:1027700022503109398328833AC02091F4043091E2
:10278000F504232B41F42091060130910701309389
:10279000F5042093F40420910401309105012115E2
:1027A000310541F42DB73EB7409108015091090120
:1027B000241B350BE091F404F091F504E217F307C4
:1027C000A0F42E1B3F0B2817390778F0AC014E5FA1
:1027D0005F4F2417350748F04E0F5F1F5093F504E5
:1027E0004093F4048193919302C0E0E0F0E0CF01C4
:1027F000DF91CF911F910F910895CF93DF930097B1
:1028000009F481C0FC01329713821282A091F60470
:10281000B091F704109781F420813181820F931FCA
:102820002091F4043091F5042817390751F5F093FD
:10283000F504E093F40467C0ED0120E030E0CE172A
:10284000DF0740F44A815B819E0141155105F1F09B
:10285000EA01F5CFD383C28340815181840F951F54
:10286000C817D90759F488819981840F951F02965A
:10287000918380838A819B81938382832115310593
:1028800029F4F093F704E093F6043DC0E901FB83DB
:10289000EA8349915991C40FD51FEC17FD0761F4E4
:1028A00080819181840F951F0296E9019983888325
:1028B000828193819B838A83E0E0F0E012968D9180
:1028C0009C911397009719F0FD01DC01F7CF8D91D2
:1028D0009C9111979D012E5F3F4F820F931F209176
:1028E000F4043091F5042817390769F4309729F476
:1028F0001092F7041092F60402C013821282B09371
:10290000F504A093F404DF91CF91089581E090E065
:10291000F8940C949C17FB01DC0104C08D9101908C
:10292000801921F441505040C8F7881B990B089535
:10293000FC018191861721F08823D9F79927089502
:102940003197CF010895FB01DC014150504048F020
:1029500001900D920020C9F701C01D9241505040D6
:10296000E0F70895AEE0B0E0E8EBF4E10C94731703
:102970000D891E8986E08C831A8309838FEF9FE778
:102980009E838D83AE01475E5F4F6F89788DCE0148
:1029900001960E94D414EF81F885E00FF11F108298
:1029A0002E96E4E00C948F17ABE0B0E0EAEDF4E192
:1029B0000C9465176C017B018A01FC011782168259
:1029C000838181FFCCC1CE0101963C01F601938148
:1029D000F70193FD859193FF81917F01882309F48D
:1029E000BAC1853239F493FD859193FF81917F01BE
:1029F000853229F4B60190E00E94CB16E7CF912CE6
:102A0000212C312CFFE1F315D8F08B3279F038F41A
:102A1000803279F08332A1F4232D20611DC08D32E4
:102A200061F0803369F4232D216016C0832D82600C
:102A3000382EE32DE4603E2E2AC0F32DF8601DC031
:102A400037FC2DC020ED280F2A3040F08E32B9F42B
:102A500036FC81C1232D2064322E19C036FE06C0FB
:102A60008AE0989E200D1124922E11C0EAE02E9E3D
:102A7000200D1124222EF32DF0623F2E08C08C363B
:102A800021F4832D8068382E02C0883641F4F70186
:102A900093FD859193FF81917F018111B3CF982F91
:102AA0009F7D9554933028F40C5F1F4F9FE39983CB
:102AB0000DC0833631F0833771F0833509F059C08A
:102AC00021C0F801808189830E5F1F4F8824839481
:102AD000912C530113C02801F2E04F0E511CF80154
:102AE000A080B18036FE03C0692D70E002C06FEF98
:102AF0007FEFC5010E94C0164C018201F32DFF77C4
:102B00003F2E16C0280122E0420E511CF801A08081
:102B1000B18036FE03C0692D70E002C06FEF7FEF19
:102B2000C5010E94B5164C01F32DF0683F2E8201BD
:102B300033FC1BC0822D90E088169906B0F4B601D4
:102B400080E290E00E94CB162A94F4CFF50137FC86
:102B5000859137FE81915F01B60190E00E94CB160E
:102B600021102A9421E0821A91088114910471F7AE
:102B7000E8C0843611F0893641F5F80137FE07C008
:102B800060817181828193810C5F1F4F08C06081D9
:102B90007181072E000C880B990B0E5F1F4FF32DD0
:102BA000FF763F2E97FF09C09095809570956195AF
:102BB0007F4F8F4F9F4FF0683F2E2AE030E0A301F8
:102BC0000E940717882E861845C0853731F4232DBB
:102BD0002F7EB22E2AE030E025C0932D997FB92EAA
:102BE0008F36C1F018F4883579F0B5C0803719F008
:102BF000883721F0B0C0E92FE061BE2EB4FE0DC0D1
:102C0000FB2DF460BF2E09C034FE0AC0292F2660B8
:102C1000B22E06C028E030E005C020E130E002C05E
:102C200020E132E0F801B7FE07C060817181828146
:102C300093810C5F1F4F06C06081718180E090E03E
:102C40000E5F1F4FA3010E940717882E8618FB2DC9
:102C5000FF773F2E36FE0DC0232D2E7FA22E891426
:102C600058F434FE0BC032FC09C0832D8E7EA82E92
:102C700005C0B82CA32C03C0B82C01C0B92CA4FEED
:102C80000FC0FE01E80DF11D8081803321F49A2DE3
:102C9000997EA92E09C0A2FE06C0B394B39404C0C5
:102CA0008A2D867809F0B394A3FC11C0A0FE06C05B
:102CB000B21488F4280C922C9B180EC0B21460F445
:102CC000B60180E290E00E94CB16B394F7CFB21425
:102CD00018F42B1802C0982C212CA4FE10C0B601A9
:102CE00080E390E00E94CB16A2FE17C0A1FC03C0B7
:102CF00088E790E002C088E590E0B6010CC08A2D1C
:102D0000867859F0A1FE02C08BE201C080E2A7FCE8
:102D10008DE2B60190E00E94CB16891438F4B6011A
:102D200080E390E00E94CB169A94F7CF8A94F30147
:102D3000E80DF11D8081B60190E00E94CB16811054
:102D4000F5CF222009F442CEB60180E290E00E9445
:102D5000CB162A94F6CFF6018681978102C08FEFB9
:102D60009FEF2B96E2E10C948117FC0105906150D6
:102D700070400110D8F7809590958E0F9F1F089591
:102D8000FC016150704001900110D8F7809590953A
:102D90008E0F9F1F08950F931F93CF93DF93FB0117
:102DA000238121FD03C08FEF9FEF2CC022FF16C0AF
:102DB00046815781248135814217530744F4A0810D
:102DC000B1819D012F5F3F4F318320838C932681FA
:102DD00037812F5F3F4F3783268314C08B01EC016F
:102DE000FB010084F185E02D0995892BE1F6D801DE
:102DF00016968D919C911797019617969C938E939A
:102E00001697CE01DF91CF911F910F910895FA018E
:102E1000AA27283051F1203181F1E8946F936E7F19
:102E20006E5F7F4F8F4F9F4FAF4FB1E03ED0B4E00A
:102E30003CD0670F781F891F9A1FA11D680F791F4B
:102E40008A1F911DA11D6A0F711D811D911DA11D5C
:102E500020D009F468943F912AE0269F112430196C
:102E6000305D3193DEF6CF010895462F4770405D07
:102E70004193B3E00FD0C9F7F6CF462F4F70405DB6
:102E80004A3318F0495D31FD4052419302D0A9F711
:102E9000EACFB4E0A6959795879577956795BA950B
:102EA000C9F700976105710508959B01AC010A2ED1
:102EB00006945795479537952795BA95C9F7620FA8
:102EC000731F841F951FA01D08952F923F924F924C
:102ED0005F926F927F928F929F92AF92BF92CF92AA
:102EE000DF92EF92FF920F931F93CF93DF93CDB7B3
:102EF000DEB7CA1BDB0B0FB6F894DEBF0FBECDBF2B
:102F000009942A88398848885F846E847D848C84FB
:102F10009B84AA84B984C884DF80EE80FD800C8104
:102F20001B81AA81B981CE0FD11D0FB6F894DEBFE7
:0C2F30000FBECDBFED010895F894FFCF57
:102F3C00FFFFFFFF0000F80480000000000000000D
:102F4C00F8008A0A8F004501C0009E00B200000004
:102F5C000000EF088A0AA901A80100000000B40AC9
:102F6C008A0AA901A801B40AB40AB40A0000000034
:102F7C00B40A8A0AA901A801000000009201000904
:102F8C00A90158077101560A600A4E6965207564DB
:102F9C0061B36F207369EA207A61696E69636A6F45
:102FAC007761E620647A6961B3616E6961206D6F47
:102FBC006475B37520637A79746E696B61206B618B
:102FCC0072742053442E000D0A004D6F6475B320AB
:102FDC00637A79746E696B61206B617274205344EF
:102FEC00207A61696E69636A6F77616E792E00452C
:0E2FFC004B4725642E747874002F002C0000C3
:107E0000112484B714BE81FFF0D085E080938100F7
:107E100082E08093C00088E18093C10086E0809377
:107E2000C20080E18093C4008EE0C9D0259A86E02C
:107E300020E33CEF91E0309385002093840096BBD3
:107E4000B09BFECF1D9AA8958150A9F7CC24DD24C4
:107E500088248394B5E0AB2EA1E19A2EF3E0BF2EE7
:107E6000A2D0813461F49FD0082FAFD0023811F036
:107E7000013811F484E001C083E08DD089C08234E0
:107E800011F484E103C0853419F485E0A6D080C0E4
:107E9000853579F488D0E82EFF2485D0082F10E0AE
:107EA000102F00270E291F29000F111F8ED06801E7
:107EB0006FC0863521F484E090D080E0DECF843638
:107EC00009F040C070D06FD0082F6DD080E0C81688
:107ED00080E7D80618F4F601B7BEE895C0E0D1E017
:107EE00062D089930C17E1F7F0E0CF16F0E7DF06D8
:107EF00018F0F601B7BEE89568D007B600FCFDCFD4
:107F0000A601A0E0B1E02C9130E011968C91119780
:107F100090E0982F8827822B932B1296FA010C0160
:107F200087BEE89511244E5F5F4FF1E0A038BF0790
:107F300051F7F601A7BEE89507B600FCFDCF97BE46
:107F4000E89526C08437B1F42ED02DD0F82E2BD052
:107F50003CD0F601EF2C8F010F5F1F4F84911BD097
:107F6000EA94F801C1F70894C11CD11CFA94CF0C13
:107F7000D11C0EC0853739F428D08EE10CD085E9AC
:107F80000AD08FE07ACF813511F488E018D01DD067
:107F900080E101D065CF982F8091C00085FFFCCF94
:107FA0009093C60008958091C00087FFFCCF809118
:107FB000C00084FD01C0A8958091C6000895E0E648
:107FC000F0E098E1908380830895EDDF803219F02E
:107FD00088E0F5DFFFCF84E1DECF1F93182FE3DFCA
:107FE0001150E9F7F2DF1F91089580E0E8DFEE27F6
:047FF000FF270994CA
:027FFE00040479
:0400000300007E007B
:00000001FF
